:100000000C945D010C94CE060C94A3060C94780617
:100010000C944D060C9422060C94F7050C94CC0518
:100020000C94A1050C948E010C948E010C948E01FD
:100030000C948E010C948E010C948E010C948E0104
:100040000C948E010C948E010C948E010C948E01F4
:100050000C948E010C948E010C948E010C94570517
:100060000C948E010C9423070C94F9060C948E01C9
:100070000C948E010C948E010C948E010C948E01C4
:100080000C948E010C948E010C948E010C948E01B4
:100090000C948E010C948E010C948E010C948E01A4
:1000A0000C948E010C948E010C948E010C948E0194
:1000B0000C948E010C948E010C948E010C948E0184
:1000C0000C948E010C948E010C948E010C948E0174
:1000D0000C948E010C948E010C948E010C948E0164
:1000E0000C948E010C94B7020C9406030C94B80384
:1000F0000C94C5040C9429030C94BC010C94FC02D0
:100100000C945F040C943D030C94EE010C94470393
:100110000C94B0040C94D8020C94DA030C941003E1
:100120000C94C4020C94D7010C94E9010C94CD01F9
:100130000C94D3010C94C3010C947C030C94120412
:100140000C94E5010C94B4010C94F3010C94AE01F1
:100150000C94620A0C94DB010C94E1010C94EA0209
:100160000C9433030C94C0010C94BF020C94CC0388
:100170000C94B8010C94E2020C94CE020C94A903E6
:100180000C947B030C94F2020C94EF010C94C901C3
:100190000C9451030C941F0300002100240027003D
:1001A0002A002D0030003300010100000401070186
:1001B0000A0100002200250028002B002E0031003B
:1001C000340002010000050108010B0100002000BD
:1001D0002300260029002C002F003200000100001F
:1001E00003010601090105050505070508080808BA
:1001F000020202020A0A08080404040401010101BF
:1002000001010101030303030303030304070707B9
:100210000C0C0C0C0C0C0C0C02020202060606065E
:10022000060606060B0B0B0B0B0B0B0B010210202B
:10023000200808102040102040800201020108041C
:1002400002010102040810204080804020100804B0
:100250000201800402018040201008040201080409
:10026000020101020408102040800102040810204D
:10027000408000000A0B02090C0D0E080703040160
:10028000000000000000000000000000000000006E
:10029000000000000000000000000000000012113B
:1002A000100000000000000000000000000000003E
:1002B0000000000000000000620A11241FBECFEF02
:1002C000D1E2DEBFCDBF00E00CBF12E0A0E0B2E0A3
:1002D000ECEFF9E100E00BBF02C007900D92AE33E6
:1002E000B107D9F722E0AEE3B2E001C01D92AE3F04
:1002F000B207E1F711E0CDE5D1E000E006C02197BB
:100300000109802FFE010E94B10ACC35D10780E09F
:100310000807A9F70E9459070C94FC0C0C940000E4
:100320008150823108F05AC0E82FF0E08827E45667
:10033000FE4F8F4F0C94B10ABC01C001AE01B40155
:10034000B801EE01C301C901CD01D301D701DB0121
:10035000E101E501EE01E901EF01F3018091800087
:100360008F77809380000895809180008F7DF9CFF2
:1003700080918000877FF5CF84B58F7784BD089505
:1003800084B58F7DFBCF8091B0008F778093B000D4
:1003900008958091B0008F7DF9CF809190008F7784
:1003A000809390000895809190008F7DF9CF809187
:1003B0009000877FF5CF8091A0008F778093A00079
:1003C00008958091A0008F7DF9CF8091A000877F54
:1003D000F5CF809120018F7780932001089580913F
:1003E00020018F7DF9CF80912001877FF5CFCF93BA
:1003F000DF93282F30E0F901EE58FD4F8491F90189
:10040000E45DFD4FD491F901EA51FE4FC491CC2334
:10041000A1F081110E949001EC2FF0E0EE0FFF1F80
:10042000E453FE4FA591B491EC91ED2381E090E06F
:1004300009F480E0DF91CF91089580E090E0FACF59
:100440001F93CF93DF93282F30E0F901EE58FD4F33
:100450008491F901E45DFD4FD491F901EA51FE4F19
:10046000C491CC23A9F0162F81110E949001EC2F8A
:10047000F0E0EE0FFF1FEE54FE4FA591B4918FB741
:10048000F894EC91111108C0D095DE23DC938FBF56
:10049000DF91CF911F910895DE2BF8CFCF93DF939B
:1004A00090E0FC01E45DFD4F24918A519E4FFC01D8
:1004B00084918823D1F090E0880F991FFC01E856C1
:1004C000FE4FA591B491FC01EE54FE4FC591D4911D
:1004D000623071F49FB7F8943C91822F809583230A
:1004E0008C93E8812E2B28839FBFDF91CF910895B5
:1004F0008FB7F894EC912E2B2C938FBFF6CF1F93D0
:10050000CF93DF93182FEB0161E00E944E022097FA
:1005100039F460E0812FDF91CF911F910C9420027C
:10052000CF3FD10511F461E0F5CFE12FF0E0EE58B7
:10053000FD4FE491E150E23108F0B3C0F0E08827CC
:10054000EB55FD4F8F4F0C94B10AB702BF02C402A6
:10055000CE02D8025103E202EA02F202FC020603D2
:1005600010031F032903510333033D03470384B5DD
:10057000806884BDC7BDDF91CF911F91089584B578
:10058000806284BDC8BDF7CF809180008068809371
:100590008000D0938900C0938800EDCF80918000C7
:1005A000806280938000D0938B00C0938A00E3CF59
:1005B00080918000886080938000D0938D00C093EC
:1005C0008C00D9CF8091B00080688093B000C09338
:1005D000B300D1CF8091B00080628093B000C0930F
:1005E000B400C9CF80919000806880939000D09330
:1005F0009900C0939800BFCF809190008062809353
:100600009000D0939B00C0939A00B5CF809190004A
:10061000886080939000D0939D00C0939C00ABCFE6
:100620008091A00080688093A0008091A0008F7BC3
:100630008093A000D093A900C093A8009CCF809184
:10064000A00080628093A000D093AB00C093AA006A
:1006500092CF8091A00088608093A000D093AD00DD
:10066000C093AC0088CF80912001806880932001E6
:10067000D0932901C09328017ECF80912001806210
:1006800080932001D0932B01C0932A0174CF8091D5
:100690002001886080932001D0932D01C0932C010C
:1006A0006ACFC038D1050CF03ECF33CF3FB7F894B6
:1006B00080915D0290915E02A0915F02B091600214
:1006C00026B5A89B05C02F3F19F00196A11DB11DAD
:1006D0003FBFBA2FA92F982F8827BC01CD01620FE9
:1006E000711D811D911D42E0660F771F881F991FA4
:1006F0004A95D1F708950895AF92BF92CF92DF92B5
:10070000EF92FF920F931F93CF93DF936C017B01C6
:100710008B01040F151FEB015E01AE18BF08C01757
:10072000D10759F06991D601ED91FC910190F081CA
:10073000E02DC6011995892B79F7C501DF91CF917D
:100740001F910F91FF90EF90DF90CF90BF90AF90EF
:100750000895FC01538D448D252F30E0842F90E0C7
:10076000821B930B541710F0CF96089501970895AC
:10077000FC01918D828D981761F0A28DAE0FBF2F75
:10078000B11D5D968C91928D9F5F9F73928F90E0CB
:1007900008958FEF9FEF0895FC01918D828D98173A
:1007A00031F0828DE80FF11D858D90E008958FEF77
:1007B0009FEF0895FC01918D228D892F90E0805C40
:1007C0009F4F821B91098F739927089581E692E0CC
:1007D0000E94DA0321E0892B09F420E0822F08959A
:1007E000FC01A48DA80FB92FB11DA35ABF4F2C91A6
:1007F000848D90E001968F739927848FA689B7899D
:100800002C93A089B1898C91837080648C93938D93
:10081000848D981306C00288F389E02D80818F7D36
:1008200080830895EF92FF920F931F93CF93DF93EE
:10083000EC0181E0888F9B8D8C8D98131AC0E8891C
:10084000F989808185FF15C09FB7F894EE89FF89EB
:100850006083E889F98980818370806480839FBF89
:1008600081E090E0DF91CF911F910F91FF90EF9089
:100870000895F62E0B8D10E00F5F1F4F0F73112799
:10088000E02E8C8D8E110CC00FB607FCFACFE889D4
:10089000F989808185FFF5CFCE010E94F003F1CF69
:1008A000EB8DEC0FFD2FF11DE35AFF4FF0829FB748
:1008B000F8940B8FEA89FB8980818062CFCFCF9338
:1008C000DF93EC01888D8823B9F0AA89BB89E88978
:1008D000F9898C9185FD03C0808186FD0DC00FB61E
:1008E00007FCF7CF8C9185FFF2CF808185FFEDCF9C
:1008F000CE010E94F003E9CFDF91CF91089580E00F
:1009000090E0892B29F00E94E60381110E940000EB
:1009100080E090E0892B49F080E090E0892B29F07D
:100920000E94000081110E94000080E090E0892B6D
:1009300049F080E090E0892B29F00E9400008111AD
:100940000E94000080E090E0892B49F080E090E078
:10095000892B29F00E94000081110C940000089559
:1009600082E00E94F701892B51F480915602909108
:1009700057020196909357028093560208958091F2
:100980005602909157020197F5CF83E00E94F7013C
:10099000892B51F4809156029091570201979093C0
:1009A0005702809356020895809156029091570203
:1009B0000196F5CFFC0101900020E9F73197AF01D6
:1009C000481B590BBC0181E692E00C947C038F928A
:1009D0009F92AF92BF920F931F93CF93DF93CDB7A8
:1009E000DEB7A1970FB6F894DEBF0FBECDBF19A238
:1009F000423008F44AE08E010F5D1F4F842E912C87
:100A0000B12CA12CA50194010E948F0AE62FB901F7
:100A1000CA01EA30F4F4E05DD801EE938D01232B96
:100A2000242B252B79F790E080E0109719F0CD0169
:100A30000E94DA04A1960FB6F894DEBF0FBECDBFB8
:100A4000DF91CF911F910F91BF90AF909F908F90AA
:100A50000895E95CE1CFCF92DF92EF92FF92CF93BE
:100A6000DF9397FF1BC06B017C016DE281E692E092
:100A70000E941204EC0166277727CB016C197D09CF
:100A80008E099F094AE00E94E7048C0F9D1FDF91A9
:100A9000CF91FF90EF90DF90CF9008954AE0DF91E3
:100AA000CF91FF90EF90DF90CF900C94E7041F92CE
:100AB0000F920FB60F9211242F933F938F939F9312
:100AC000AF93BF938091590290915A02A0915B021B
:100AD000B0915C023091580223E0230F2D3758F576
:100AE0000196A11DB11D2093580280935902909345
:100AF0005A02A0935B02B0935C0280915D029091D8
:100B00005E02A0915F02B09160020196A11DB11D2D
:100B100080935D0290935E02A0935F02B0936002A7
:100B2000BF91AF919F918F913F912F910F900FBEE9
:100B30000F901F90189526E8230F0296A11DB11D56
:100B4000D2CF1F920F920FB60F9211240BB60F92B5
:100B50002F933F934F935F936F937F938F939F93C5
:100B6000AF93BF93EF93FF93E0910E02F0910F02CA
:100B70001995FF91EF91BF91AF919F918F917F91C7
:100B80006F915F914F913F912F910F900BBE0F90FE
:100B90000FBE0F901F9018951F920F920FB60F92D5
:100BA00011240BB60F922F933F934F935F936F9344
:100BB0007F938F939F93AF93BF93EF93FF93E091B6
:100BC0000C02F0910D021995FF91EF91BF91AF9139
:100BD0009F918F917F916F915F914F913F912F9155
:100BE0000F900BBE0F900FBE0F901F9018951F9285
:100BF0000F920FB60F9211240BB60F922F933F93C3
:100C00004F935F936F937F938F939F93AF93BF9314
:100C1000EF93FF93E0910202F09103021995FF9187
:100C2000EF91BF91AF919F918F917F916F915F9164
:100C30004F913F912F910F900BBE0F900FBE0F90D1
:100C40001F9018951F920F920FB60F9211240BB69A
:100C50000F922F933F934F935F936F937F938F9355
:100C60009F93AF93BF93EF93FF93E0910002F091B6
:100C700001021995FF91EF91BF91AF919F918F91D3
:100C80007F916F915F914F913F912F910F900BBE8C
:100C90000F900FBE0F901F9018951F920F920FB6D6
:100CA0000F9211240BB60F922F933F934F935F93A4
:100CB0006F937F938F939F93AF93BF93EF93FF9324
:100CC000E0910A02F0910B021995FF91EF91BF910B
:100CD000AF919F918F917F916F915F914F913F91D4
:100CE0002F910F900BBE0F900FBE0F901F90189575
:100CF0001F920F920FB60F9211240BB60F922F93E3
:100D00003F934F935F936F937F938F939F93AF9393
:100D1000BF93EF93FF93E0910802F09109021995B8
:100D2000FF91EF91BF91AF919F918F917F916F91C3
:100D30005F914F913F912F910F900BBE0F900FBE7F
:100D40000F901F9018951F920F920FB60F921124BB
:100D50000BB60F922F933F934F935F936F937F93B5
:100D60008F939F93AF93BF93EF93FF93E09106020E
:100D7000F09107021995FF91EF91BF91AF919F916B
:100D80008F917F916F915F914F913F912F910F9034
:100D90000BBE0F900FBE0F901F9018951F920F92D1
:100DA0000FB60F9211240BB60F922F933F934F93D0
:100DB0005F936F937F938F939F93AF93BF93EF93C3
:100DC000FF93E0910402F09105021995FF91EF91D4
:100DD000BF91AF919F918F917F916F915F914F9153
:100DE0003F912F910F900BBE0F900FBE0F901F9051
:100DF00018951F920F920FB60F9211240BB60F92F7
:100E00002F933F934F935F936F937F938F939F9312
:100E1000AF93BF93EF93FF9381E692E00E94F003BC
:100E2000FF91EF91BF91AF919F918F917F916F91C2
:100E30005F914F913F912F910F900BBE0F900FBE7E
:100E40000F901F9018951F920F920FB60F921124BA
:100E50000BB60F922F938F939F93EF93FF93E09195
:100E60007102F09172028081E0917702F091780234
:100E700082FD1DC0908180917A028F5F8F732091D7
:100E80007B02821741F0E0917A02F0E0EF59FD4FCA
:100E9000958F80937A02FF91EF919F918F912F917F
:100EA0000F900BBE0F900FBE0F901F901895808172
:100EB000F2CF789484B5826084BD84B5816084BDAE
:100EC00085B5826085BD85B5816085BD80916E00E8
:100ED000816080936E001092810080918100826019
:100EE0008093810080918100816080938100809156
:100EF00080008160809380008091B1008460809345
:100F0000B1008091B00081608093B0008091910029
:100F10008260809391008091910081608093910024
:100F2000809190008160809390008091A100826008
:100F30008093A1008091A10081608093A1008091A5
:100F4000A00081608093A000809121018260809345
:100F500021018091210181608093210180912001F4
:100F600081608093200180917A00846080937A0070
:100F700080917A00826080937A0080917A0081600B
:100F800080937A0080917A00806880937A00109232
:100F9000C100E0917102F091720282E08083E091E1
:100FA0006D02F0916E021082E0916F02F09170027A
:100FB0008FEC808310927902E0917502F0917602B5
:100FC00086E08083E0917302F091740280818061F9
:100FD0008083E0917302F091740280818860808345
:100FE000E0917302F0917402808180688083E091C7
:100FF0007302F091740280818F7D808362E082E0D1
:101000000E944E0262E083E00E944E0285EC94E072
:10101000909301028093000280916A008360809324
:101020006A00EC9A80EB94E09093030280930202B2
:1010300080916A008C6080936A00ED9A61E088E09C
:101040000E944E0261E08AE00E944E0261E089E067
:101050000E944E0282E292E00E94DA048DE292E067
:101060000E94DA044AE0242E312C1092570210928A
:10107000560210924E0210924F021092500210929D
:101080005102C4E1D0E00E9456036B017C018091C3
:101090004A0290914B02A0914C02B0914D02A701DF
:1010A0009601281B390B4A0B5B0BCA01B9010E9440
:1010B000D50B20E034E244E759E40E942B0B609307
:1010C0005202709353028093540290935502C0923F
:1010D0004A02D0924B02E0924C02F0924D02F894F8
:1010E00000915602109157027894B801675E7740DC
:1010F000072E000C880B990B0E94D50B6B017C010D
:101100008090520290905302A0905402B0905502E9
:101110002091460230914702409148025091490285
:101120000E94B90AA50194010E942B0B2B013C01DE
:10113000A5019401C701B6010E948A0C20914202C8
:101140003091430240914402509145020E94BA0AF4
:101150004B015C018092420290924302A0924402B1
:10116000B09245022DEC3CEC4CE45DE3C301B201CE
:101170000E948A0CA70196010E94BA0A2B013C0129
:101180002CEA35EC47EA57E3C501B4010E948A0C0A
:101190009B01AC01C301B2010E94BA0A2B013C01C0
:1011A00020E030E0A9010E94260BAA24AA94BA2CC0
:1011B00087FD03C0AA24A394B12CE89477F820E01B
:1011C00030E04FE753E4C301B2010E94850C1816CA
:1011D0006CF480E090E0AFE7B3E480934E0290932C
:1011E0004F02A0935002B093510213C020E030E0B0
:1011F00048E552E4C301B2010E94260B18160CF018
:10120000BAC040924E0250924F02609250027092C9
:101210005102C0924602D0924702E0924802F092F8
:10122000490287EE97E0801B910B05960B9708F01B
:10123000B1C0259792E0A92EB12C60914E02709119
:101240004F0280915002909151020E949D0B88E0C4
:101250000E947F0261E08AE091E0A916B10409F4DE
:101260009BC060E08AE0AB20A09409F095C00E948A
:10127000200261E089E00E94200267EE77E080E0D2
:1012800090E00E942B0580E392E00E94DA04B8010E
:10129000110F880B990B0E942B0580E392E00E94AE
:1012A000DA04C0904E02D0904F02E0905002F090CD
:1012B0005102A7019601C701B6010E94F70C8823CD
:1012C00009F46EC082E392E00E94DA0480E392E0C7
:1012D0000E94DA04BE010D2E000C880B990B0E94AF
:1012E0002B058DE292E00E94DA04C530D1050CF0A6
:1012F000CACEB1E02B1A310809F0B7CE60914E0288
:1013000070914F0280915002909151020E949D0B6A
:1013100088E00E947F0260E08AE00E94200260E094
:1013200089E00E9420020E9456036B017C0180E14B
:10133000882E87E2982EA12CB12C0E9456036C199E
:101340007D098E099F09683E734081059105A8F3C8
:1013500021E0821A9108A108B10838EEC30E33E0EB
:10136000D31EE11CF11C81149104A104B10429F7DE
:101370000E947F0477CE20E030E040E050E4C301DB
:10138000B2010E94850C87FD3CCF80E090E0ACE587
:10139000B2E423CF219651CF0E94200260E06ACFB1
:1013A00046015701E894B7F82FEF3FEF4FE75FE7AB
:1013B000C501B4010E94F70C81110DC02FEF3FEF62
:1013C0004FE75FE7C501B4010E94260B18161CF415
:1013D00086E392E079CF2FEF3FEF4FE75FE4C7015D
:1013E000B6010E94850C18161CF48AE392E06CCFBB
:1013F0002FEF3FEF4FE75FECC701B6010E94260BCE
:1014000087FDF3CF20E030E0A901C701B6010E94BB
:10141000260B87FF09C06DE281E692E00E9412046C
:10142000F7FAF094F7F8F0942AE037ED43EA5BE33B
:10143000C701B6010E94BA0A4B015C010E94A40BCD
:101440006B017C010E94D30B9B01AC01C501B4016F
:101450000E94B90A4B015C014AE0C701B6010E9433
:10146000E7046EE281E692E00E94120420E030E0A0
:1014700040E251E4C501B4010E948A0C4B015C01B9
:101480000E94A40B6B01F12CE12C4AE0C701B601CC
:101490000E94E704C701B6010E94D30B9B01AC0177
:1014A000C501B4010E94B90A20E030E040E251E4F5
:1014B0000E948A0C0E94A40B90E080E04AE00E9407
:1014C000E70404CFE1E6F2E01382128288EE93E0B3
:1014D000A0E0B0E084839583A683B78384E192E0A3
:1014E0009183808385EC90E09587848784EC90E0FD
:1014F0009787868780EC90E0918B808B81EC90E0E1
:10150000938B828B82EC90E0958B848B86EC90E0C1
:10151000978B868B118E128E138E148E0895A1E2F6
:101520001A2EAA1BBB1BFD010DC0AA1FBB1FEE1F5D
:10153000FF1FA217B307E407F50720F0A21BB30BA8
:10154000E40BF50B661F771F881F991F1A9469F724
:1015500060957095809590959B01AC01BD01CF0180
:101560000895EE0FFF1F881F8BBF0790F691E02DA7
:1015700019945058BB27AA270E94D10A0C944B0CEF
:101580000E943D0C38F00E94440C20F039F49F3F3B
:1015900019F426F40C943A0C0EF4E095E7FB0C9445
:1015A000340CE92F0E945C0C58F3BA1762077307DA
:1015B0008407950720F079F4A6F50C947E0C0EF4C0
:1015C000E0950B2EBA2FA02D0B01B90190010C0153
:1015D000CA01A0011124FF27591B99F0593F50F46B
:1015E000503E68F11A16F040A22F232F342F4427C3
:1015F000585FF3CF469537952795A795F0405395BB
:10160000C9F77EF41F16BA0B620B730B840BBAF08A
:101610009150A1F0FF0FBB1F661F771F881FC2F7F5
:101620000EC0BA0F621F731F841F48F48795779509
:101630006795B795F7959E3F08F0B0CF9395880FC3
:1016400008F09927EE0F9795879508950E94100C42
:1016500008F481E008950E943F0B0C944B0C0E940B
:10166000440C58F00E943D0C40F029F45F3F29F0F3
:101670000C94340C51110C947F0C0C943A0C0E9475
:101680005C0C68F39923B1F3552391F3951B550B2B
:10169000BB27AA2762177307840738F09F5F5F4F45
:1016A000220F331F441FAA1FA9F335D00E2E3AF084
:1016B000E0E832D091505040E695001CCAF72BD09C
:1016C000FE2F29D0660F771F881FBB1F26173707ED
:1016D0004807AB07B0E809F0BB0B802DBF01FF271F
:1016E00093585F4F3AF09E3F510578F00C94340CBC
:1016F0000C947F0C5F3FE4F3983ED4F38695779586
:101700006795B795F7959F5FC9F7880F911D9695D7
:10171000879597F90895E1E0660F771F881FBB1F33
:10172000621773078407BA0720F0621B730B840BE0
:10173000BA0BEE1F88F7E09508950E94A40B6894F9
:10174000B1110C947F0C08950E94640C88F09F578F
:1017500098F0B92F9927B751B0F0E1F0660F771FD5
:10176000881F991F1AF0BA95C9F714C0B13091F0CB
:101770000E947E0CB1E008950C947E0C672F782FA8
:101780008827B85F39F0B93FCCF386957795679590
:10179000B395D9F73EF490958095709561957F4FFC
:1017A0008F4F9F4F0895E89409C097FB3EF49095A2
:1017B0008095709561957F4F8F4F9F4F9923A9F02A
:1017C000F92F96E9BB279395F695879577956795B9
:1017D000B795F111F8CFFAF4BB0F11F460FF1BC0FD
:1017E0006F5F7F4F8F4F9F4F16C0882311F096E990
:1017F00011C0772321F09EE8872F762F05C066233E
:1018000071F096E8862F70E060E02AF09A95660FF6
:10181000771F881FDAF7880F9695879597F90895AF
:10182000990F0008550FAA0BE0E8FEEF16161706F1
:10183000E807F907C0F012161306E407F50798F059
:10184000621B730B840B950B39F40A2661F0232B72
:10185000242B252B21F408950A2609F4A140A695EE
:101860008FEF811D811D089597F99F6780E870E0D3
:1018700060E008959FEF80EC089500240A94161606
:10188000170618060906089500240A94121613066E
:10189000140605060895092E0394000C11F48823FC
:1018A00052F0BB0F40F4BF2B11F460FF04C06F5F18
:1018B0007F4F8F4F9F4F089557FD9058440F551FEE
:1018C00059F05F3F71F04795880F97FB991F61F0C2
:1018D0009F3F79F087950895121613061406551F39
:1018E000F2CF4695F1DF08C0161617061806991FA5
:1018F000F1CF86957105610508940895E894BB279A
:1019000066277727CB0197F908950E94100C08F4F9
:101910008FEF08950E949D0C0C944B0C0E943D0C7F
:1019200038F00E94440C20F0952311F00C94340CF4
:101930000C943A0C11240C947F0C0E945C0C70F3F4
:10194000959FC1F3950F50E0551F629FF001729F64
:10195000BB27F00DB11D639FAA27F00DB11DAA1F73
:10196000649F6627B00DA11D661F829F2227B00DC0
:10197000A11D621F739FB00DA11D621F839FA00D4B
:10198000611D221F749F3327A00D611D231F849F9B
:10199000600D211D822F762F6A2F11249F575040F2
:1019A0009AF0F1F088234AF0EE0FFF1FBB1F661F6D
:1019B000771F881F91505040A9F79E3F510580F036
:1019C0000C94340C0C947F0C5F3FE4F3983ED4F3FA
:1019D000869577956795B795F795E7959F5FC1F7DA
:1019E000FE2B880F911D9695879597F908950E9473
:0C19F000100C880B990B0895F894FFCFA1
:1019FC007B037B037B037B037B037B037B037B03EB
:101A0C000000000012047C03A9035F04DA03B8038E
:101A1C00CC0374617267657420706F73000D0A00DB
:0E1A2C0020006E616E00696E66006F766600C7
:00000001FF
